{
  "contractName": "MasterChef",
  "abi": [
    {
      "inputs": [
        {
          "internalType": "contract HighToken",
          "name": "_egg",
          "type": "address"
        },
        {
          "internalType": "address",
          "name": "_devaddr",
          "type": "address"
        },
        {
          "internalType": "address",
          "name": "_feeAddress",
          "type": "address"
        },
        {
          "internalType": "uint256",
          "name": "_eggPerBlock",
          "type": "uint256"
        },
        {
          "internalType": "uint256",
          "name": "_startBlock",
          "type": "uint256"
        }
      ],
      "stateMutability": "nonpayable",
      "type": "constructor"
    },
    {
      "anonymous": false,
      "inputs": [
        {
          "indexed": true,
          "internalType": "address",
          "name": "user",
          "type": "address"
        },
        {
          "indexed": true,
          "internalType": "uint256",
          "name": "pid",
          "type": "uint256"
        },
        {
          "indexed": false,
          "internalType": "uint256",
          "name": "amount",
          "type": "uint256"
        }
      ],
      "name": "Deposit",
      "type": "event"
    },
    {
      "anonymous": false,
      "inputs": [
        {
          "indexed": true,
          "internalType": "address",
          "name": "user",
          "type": "address"
        },
        {
          "indexed": true,
          "internalType": "uint256",
          "name": "pid",
          "type": "uint256"
        },
        {
          "indexed": false,
          "internalType": "uint256",
          "name": "amount",
          "type": "uint256"
        }
      ],
      "name": "EmergencyWithdraw",
      "type": "event"
    },
    {
      "anonymous": false,
      "inputs": [
        {
          "indexed": true,
          "internalType": "address",
          "name": "previousOwner",
          "type": "address"
        },
        {
          "indexed": true,
          "internalType": "address",
          "name": "newOwner",
          "type": "address"
        }
      ],
      "name": "OwnershipTransferred",
      "type": "event"
    },
    {
      "anonymous": false,
      "inputs": [
        {
          "indexed": true,
          "internalType": "address",
          "name": "user",
          "type": "address"
        },
        {
          "indexed": true,
          "internalType": "uint256",
          "name": "pid",
          "type": "uint256"
        },
        {
          "indexed": false,
          "internalType": "uint256",
          "name": "amount",
          "type": "uint256"
        }
      ],
      "name": "Withdraw",
      "type": "event"
    },
    {
      "inputs": [],
      "name": "BONUS_MULTIPLIER",
      "outputs": [
        {
          "internalType": "uint256",
          "name": "",
          "type": "uint256"
        }
      ],
      "stateMutability": "view",
      "type": "function"
    },
    {
      "inputs": [],
      "name": "devaddr",
      "outputs": [
        {
          "internalType": "address",
          "name": "",
          "type": "address"
        }
      ],
      "stateMutability": "view",
      "type": "function"
    },
    {
      "inputs": [],
      "name": "egg",
      "outputs": [
        {
          "internalType": "contract HighToken",
          "name": "",
          "type": "address"
        }
      ],
      "stateMutability": "view",
      "type": "function"
    },
    {
      "inputs": [],
      "name": "eggPerBlock",
      "outputs": [
        {
          "internalType": "uint256",
          "name": "",
          "type": "uint256"
        }
      ],
      "stateMutability": "view",
      "type": "function"
    },
    {
      "inputs": [],
      "name": "feeAddress",
      "outputs": [
        {
          "internalType": "address",
          "name": "",
          "type": "address"
        }
      ],
      "stateMutability": "view",
      "type": "function"
    },
    {
      "inputs": [],
      "name": "migrator",
      "outputs": [
        {
          "internalType": "contract IMigratorChef",
          "name": "",
          "type": "address"
        }
      ],
      "stateMutability": "view",
      "type": "function"
    },
    {
      "inputs": [],
      "name": "owner",
      "outputs": [
        {
          "internalType": "address",
          "name": "",
          "type": "address"
        }
      ],
      "stateMutability": "view",
      "type": "function"
    },
    {
      "inputs": [
        {
          "internalType": "uint256",
          "name": "",
          "type": "uint256"
        }
      ],
      "name": "poolInfo",
      "outputs": [
        {
          "internalType": "contract IBEP20",
          "name": "lpToken",
          "type": "address"
        },
        {
          "internalType": "uint256",
          "name": "allocPoint",
          "type": "uint256"
        },
        {
          "internalType": "uint256",
          "name": "lastRewardBlock",
          "type": "uint256"
        },
        {
          "internalType": "uint256",
          "name": "accEggPerShare",
          "type": "uint256"
        },
        {
          "internalType": "uint16",
          "name": "depositFeeBP",
          "type": "uint16"
        }
      ],
      "stateMutability": "view",
      "type": "function"
    },
    {
      "inputs": [],
      "name": "renounceOwnership",
      "outputs": [],
      "stateMutability": "nonpayable",
      "type": "function"
    },
    {
      "inputs": [],
      "name": "startBlock",
      "outputs": [
        {
          "internalType": "uint256",
          "name": "",
          "type": "uint256"
        }
      ],
      "stateMutability": "view",
      "type": "function"
    },
    {
      "inputs": [],
      "name": "totalAllocPoint",
      "outputs": [
        {
          "internalType": "uint256",
          "name": "",
          "type": "uint256"
        }
      ],
      "stateMutability": "view",
      "type": "function"
    },
    {
      "inputs": [
        {
          "internalType": "address",
          "name": "newOwner",
          "type": "address"
        }
      ],
      "name": "transferOwnership",
      "outputs": [],
      "stateMutability": "nonpayable",
      "type": "function"
    },
    {
      "inputs": [
        {
          "internalType": "uint256",
          "name": "",
          "type": "uint256"
        },
        {
          "internalType": "address",
          "name": "",
          "type": "address"
        }
      ],
      "name": "userInfo",
      "outputs": [
        {
          "internalType": "uint256",
          "name": "amount",
          "type": "uint256"
        },
        {
          "internalType": "uint256",
          "name": "rewardDebt",
          "type": "uint256"
        }
      ],
      "stateMutability": "view",
      "type": "function"
    },
    {
      "inputs": [],
      "name": "poolLength",
      "outputs": [
        {
          "internalType": "uint256",
          "name": "",
          "type": "uint256"
        }
      ],
      "stateMutability": "view",
      "type": "function"
    },
    {
      "inputs": [
        {
          "internalType": "uint256",
          "name": "_allocPoint",
          "type": "uint256"
        },
        {
          "internalType": "contract IBEP20",
          "name": "_lpToken",
          "type": "address"
        },
        {
          "internalType": "uint16",
          "name": "_depositFeeBP",
          "type": "uint16"
        },
        {
          "internalType": "bool",
          "name": "_withUpdate",
          "type": "bool"
        }
      ],
      "name": "add",
      "outputs": [],
      "stateMutability": "nonpayable",
      "type": "function"
    },
    {
      "inputs": [
        {
          "internalType": "uint256",
          "name": "_pid",
          "type": "uint256"
        },
        {
          "internalType": "uint256",
          "name": "_allocPoint",
          "type": "uint256"
        },
        {
          "internalType": "uint16",
          "name": "_depositFeeBP",
          "type": "uint16"
        },
        {
          "internalType": "bool",
          "name": "_withUpdate",
          "type": "bool"
        }
      ],
      "name": "set",
      "outputs": [],
      "stateMutability": "nonpayable",
      "type": "function"
    },
    {
      "inputs": [
        {
          "internalType": "contract IMigratorChef",
          "name": "_migrator",
          "type": "address"
        }
      ],
      "name": "setMigrator",
      "outputs": [],
      "stateMutability": "nonpayable",
      "type": "function"
    },
    {
      "inputs": [
        {
          "internalType": "uint256",
          "name": "_pid",
          "type": "uint256"
        }
      ],
      "name": "migrate",
      "outputs": [],
      "stateMutability": "nonpayable",
      "type": "function"
    },
    {
      "inputs": [
        {
          "internalType": "uint256",
          "name": "_from",
          "type": "uint256"
        },
        {
          "internalType": "uint256",
          "name": "_to",
          "type": "uint256"
        }
      ],
      "name": "getMultiplier",
      "outputs": [
        {
          "internalType": "uint256",
          "name": "",
          "type": "uint256"
        }
      ],
      "stateMutability": "view",
      "type": "function"
    },
    {
      "inputs": [
        {
          "internalType": "uint256",
          "name": "_pid",
          "type": "uint256"
        },
        {
          "internalType": "address",
          "name": "_user",
          "type": "address"
        }
      ],
      "name": "pendingEgg",
      "outputs": [
        {
          "internalType": "uint256",
          "name": "",
          "type": "uint256"
        }
      ],
      "stateMutability": "view",
      "type": "function"
    },
    {
      "inputs": [],
      "name": "massUpdatePools",
      "outputs": [],
      "stateMutability": "nonpayable",
      "type": "function"
    },
    {
      "inputs": [
        {
          "internalType": "uint256",
          "name": "_pid",
          "type": "uint256"
        }
      ],
      "name": "updatePool",
      "outputs": [],
      "stateMutability": "nonpayable",
      "type": "function"
    },
    {
      "inputs": [
        {
          "internalType": "uint256",
          "name": "_pid",
          "type": "uint256"
        },
        {
          "internalType": "uint256",
          "name": "_amount",
          "type": "uint256"
        }
      ],
      "name": "deposit",
      "outputs": [],
      "stateMutability": "nonpayable",
      "type": "function"
    },
    {
      "inputs": [
        {
          "internalType": "uint256",
          "name": "_pid",
          "type": "uint256"
        },
        {
          "internalType": "uint256",
          "name": "_amount",
          "type": "uint256"
        }
      ],
      "name": "withdraw",
      "outputs": [],
      "stateMutability": "nonpayable",
      "type": "function"
    },
    {
      "inputs": [
        {
          "internalType": "uint256",
          "name": "_pid",
          "type": "uint256"
        }
      ],
      "name": "emergencyWithdraw",
      "outputs": [],
      "stateMutability": "nonpayable",
      "type": "function"
    },
    {
      "inputs": [
        {
          "internalType": "address",
          "name": "_devaddr",
          "type": "address"
        }
      ],
      "name": "dev",
      "outputs": [],
      "stateMutability": "nonpayable",
      "type": "function"
    },
    {
      "inputs": [
        {
          "internalType": "address",
          "name": "_feeAddress",
          "type": "address"
        }
      ],
      "name": "setFeeAddress",
      "outputs": [],
      "stateMutability": "nonpayable",
      "type": "function"
    },
    {
      "inputs": [
        {
          "internalType": "uint256",
          "name": "_eggPerBlock",
          "type": "uint256"
        }
      ],
      "name": "updateEmissionRate",
      "outputs": [],
      "stateMutability": "nonpayable",
      "type": "function"
    }
  ],
  "bytecode": "0x6080604052600060085534801561001557600080fd5b506040516200284f3803806200284f833981810160405260a081101561003a57600080fd5b5080516020820151604083015160608401516080909401519293919290919060006100636100f9565b600080546001600160a01b0319166001600160a01b0383169081178255604051929350917f8be0079c531659141344cd1fd0a4f28419497f9722a3daafe3b4186f6b6457e0908290a350600180546001600160a01b03199081166001600160a01b0397881617909155600280548216958716959095179094556004805490941692909416919091179091556003556009556100fd565b3390565b612742806200010d6000396000f3fe608060405234801561001057600080fd5b50600436106101c45760003560e01c806384e82a33116100f9578063a1a4d4a411610097578063d963842211610071578063d9638422146104b9578063e2bbb158146104ee578063f2fde38b14610511578063f456426f14610544576101c4565b8063a1a4d4a4146104a1578063c06abfc7146104a9578063d49e77cd146104b1576101c4565b80638d88a90e116100d35780638d88a90e146103f15780638da5cb5b146104245780638dbb1e3a1461042c57806393f1a40b1461044f576101c4565b806384e82a331461036b5780638705fcd4146103b65780638aa28550146103e9576101c4565b8063454b0608116101665780635312ea8e116101405780635312ea8e14610336578063630b5ba114610353578063715018a61461035b5780637cd07e4714610363576101c4565b8063454b0608146102f457806348cd4cb11461031157806351eb05a614610319576101c4565b806317caf6f1116101a257806317caf6f11461026557806323cf31181461026d57806341275358146102a0578063441a3e70146102d1576101c4565b8063081e3eda146101c95780630ba84cd2146101e35780631526fe2714610202575b600080fd5b6101d161057d565b60408051918252519081900360200190f35b610200600480360360208110156101f957600080fd5b5035610583565b005b61021f6004803603602081101561021857600080fd5b5035610621565b6040805173ffffffffffffffffffffffffffffffffffffffff9096168652602086019490945284840192909252606084015261ffff166080830152519081900360a00190f35b6101d161067a565b6102006004803603602081101561028357600080fd5b503573ffffffffffffffffffffffffffffffffffffffff16610680565b6102a8610758565b6040805173ffffffffffffffffffffffffffffffffffffffff9092168252519081900360200190f35b610200600480360360408110156102e757600080fd5b5080359060200135610774565b6102006004803603602081101561030a57600080fd5b5035610905565b6101d1610c65565b6102006004803603602081101561032f57600080fd5b5035610c6b565b6102006004803603602081101561034c57600080fd5b5035610f07565b610200610fb0565b610200610fd3565b6102a86110d3565b6102006004803603608081101561038157600080fd5b5080359073ffffffffffffffffffffffffffffffffffffffff6020820135169061ffff604082013516906060013515156110ef565b610200600480360360208110156103cc57600080fd5b503573ffffffffffffffffffffffffffffffffffffffff16611388565b6101d1611455565b6102006004803603602081101561040757600080fd5b503573ffffffffffffffffffffffffffffffffffffffff1661145a565b6102a8611527565b6101d16004803603604081101561044257600080fd5b5080359060200135611543565b6104886004803603604081101561046557600080fd5b508035906020013573ffffffffffffffffffffffffffffffffffffffff1661155d565b6040805192835260208301919091528051918290030190f35b6101d1611581565b6102a8611587565b6102a86115a3565b610200600480360360808110156104cf57600080fd5b5080359060208101359061ffff604082013516906060013515156115bf565b6102006004803603604081101561050457600080fd5b5080359060200135611762565b6102006004803603602081101561052757600080fd5b503573ffffffffffffffffffffffffffffffffffffffff166118f4565b6101d16004803603604081101561055a57600080fd5b508035906020013573ffffffffffffffffffffffffffffffffffffffff16611a7e565b60065490565b61058b611c02565b60005473ffffffffffffffffffffffffffffffffffffffff90811691161461061457604080517f08c379a000000000000000000000000000000000000000000000000000000000815260206004820181905260248201527f4f776e61626c653a2063616c6c6572206973206e6f7420746865206f776e6572604482015290519081900360640190fd5b61061c610fb0565b600355565b6006818154811061062e57fe5b60009182526020909120600590910201805460018201546002830154600384015460049094015473ffffffffffffffffffffffffffffffffffffffff90931694509092909161ffff1685565b60085481565b610688611c02565b60005473ffffffffffffffffffffffffffffffffffffffff90811691161461071157604080517f08c379a000000000000000000000000000000000000000000000000000000000815260206004820181905260248201527f4f776e61626c653a2063616c6c6572206973206e6f7420746865206f776e6572604482015290519081900360640190fd5b600580547fffffffffffffffffffffffff00000000000000000000000000000000000000001673ffffffffffffffffffffffffffffffffffffffff92909216919091179055565b60045473ffffffffffffffffffffffffffffffffffffffff1681565b60006006838154811061078357fe5b60009182526020808320868452600782526040808520338652909252922080546005909202909201925083111561081b57604080517f08c379a000000000000000000000000000000000000000000000000000000000815260206004820152601260248201527f77697468647261773a206e6f7420676f6f640000000000000000000000000000604482015290519081900360640190fd5b61082484610c6b565b600061085e826001015461085864e8d4a5100061085287600301548760000154611c0690919063ffffffff16565b90611c79565b90611cbb565b90508015610870576108703382611cfd565b83156108a75781546108829085611cbb565b825582546108a79073ffffffffffffffffffffffffffffffffffffffff163386611f00565b600383015482546108c29164e8d4a510009161085291611c06565b6001830155604080518581529051869133917ff279e6a1f5e320cca91135676d9cb6e44ca8a08c0b88342bcdb1144f6511b5689181900360200190a35050505050565b60055473ffffffffffffffffffffffffffffffffffffffff1661098957604080517f08c379a000000000000000000000000000000000000000000000000000000000815260206004820152601460248201527f6d6967726174653a206e6f206d69677261746f72000000000000000000000000604482015290519081900360640190fd5b60006006828154811061099857fe5b6000918252602080832060059092029091018054604080517f70a08231000000000000000000000000000000000000000000000000000000008152306004820152905192955073ffffffffffffffffffffffffffffffffffffffff909116939284926370a08231926024808201939291829003018186803b158015610a1c57600080fd5b505afa158015610a30573d6000803e3d6000fd5b505050506040513d6020811015610a4657600080fd5b5051600554909150610a729073ffffffffffffffffffffffffffffffffffffffff848116911683611f8d565b600554604080517fce5494bb00000000000000000000000000000000000000000000000000000000815273ffffffffffffffffffffffffffffffffffffffff85811660048301529151600093929092169163ce5494bb9160248082019260209290919082900301818787803b158015610aea57600080fd5b505af1158015610afe573d6000803e3d6000fd5b505050506040513d6020811015610b1457600080fd5b5051604080517f70a08231000000000000000000000000000000000000000000000000000000008152306004820152905191925073ffffffffffffffffffffffffffffffffffffffff8316916370a0823191602480820192602092909190829003018186803b158015610b8657600080fd5b505afa158015610b9a573d6000803e3d6000fd5b505050506040513d6020811015610bb057600080fd5b50518214610c1f57604080517f08c379a000000000000000000000000000000000000000000000000000000000815260206004820152600c60248201527f6d6967726174653a206261640000000000000000000000000000000000000000604482015290519081900360640190fd5b83547fffffffffffffffffffffffff00000000000000000000000000000000000000001673ffffffffffffffffffffffffffffffffffffffff9190911617909255505050565b60095481565b600060068281548110610c7a57fe5b9060005260206000209060050201905080600201544311610c9b5750610f04565b8054604080517f70a08231000000000000000000000000000000000000000000000000000000008152306004820152905160009273ffffffffffffffffffffffffffffffffffffffff16916370a08231916024808301926020929190829003018186803b158015610d0b57600080fd5b505afa158015610d1f573d6000803e3d6000fd5b505050506040513d6020811015610d3557600080fd5b50519050801580610d4857506001820154155b15610d5a575043600290910155610f04565b6000610d6a836002015443611543565b90506000610d976008546108528660010154610d9160035487611c0690919063ffffffff16565b90611c06565b60015460025491925073ffffffffffffffffffffffffffffffffffffffff908116916340c10f199116610dcb84600a611c79565b6040518363ffffffff1660e01b8152600401808373ffffffffffffffffffffffffffffffffffffffff16815260200182815260200192505050600060405180830381600087803b158015610e1e57600080fd5b505af1158015610e32573d6000803e3d6000fd5b5050600154604080517f40c10f1900000000000000000000000000000000000000000000000000000000815230600482015260248101869052905173ffffffffffffffffffffffffffffffffffffffff90921693506340c10f19925060448082019260009290919082900301818387803b158015610eaf57600080fd5b505af1158015610ec3573d6000803e3d6000fd5b50505050610ef1610ee68461085264e8d4a5100085611c0690919063ffffffff16565b60038601549061211b565b6003850155505043600290920191909155505b50565b600060068281548110610f1657fe5b600091825260208083208584526007825260408085203380875293528420805485825560018201959095556005909302018054909450919291610f739173ffffffffffffffffffffffffffffffffffffffff919091169083611f00565b604080518281529051859133917fbb757047c2b5f3974fe26b7c10f732e7bce710b0952a71082702781e62ae05959181900360200190a350505050565b60065460005b81811015610fcf57610fc781610c6b565b600101610fb6565b5050565b610fdb611c02565b60005473ffffffffffffffffffffffffffffffffffffffff90811691161461106457604080517f08c379a000000000000000000000000000000000000000000000000000000000815260206004820181905260248201527f4f776e61626c653a2063616c6c6572206973206e6f7420746865206f776e6572604482015290519081900360640190fd5b6000805460405173ffffffffffffffffffffffffffffffffffffffff909116907f8be0079c531659141344cd1fd0a4f28419497f9722a3daafe3b4186f6b6457e0908390a3600080547fffffffffffffffffffffffff0000000000000000000000000000000000000000169055565b60055473ffffffffffffffffffffffffffffffffffffffff1681565b6110f7611c02565b60005473ffffffffffffffffffffffffffffffffffffffff90811691161461118057604080517f08c379a000000000000000000000000000000000000000000000000000000000815260206004820181905260248201527f4f776e61626c653a2063616c6c6572206973206e6f7420746865206f776e6572604482015290519081900360640190fd5b6127108261ffff1611156111df576040517f08c379a000000000000000000000000000000000000000000000000000000000815260040180806020018281038252602581526020018061261c6025913960400191505060405180910390fd5b80156111ed576111ed610fb0565b6000600954431161120057600954611202565b435b600854909150611212908661211b565b6008556040805160a08101825273ffffffffffffffffffffffffffffffffffffffff95861681526020810196875290810191825260006060820181815261ffff9586166080840190815260068054600181018255935292517ff652222313e28459528d920b65115c16c04f3efc82aaedc97be59f3f377c0d3f600590930292830180547fffffffffffffffffffffffff000000000000000000000000000000000000000016919098161790965595517ff652222313e28459528d920b65115c16c04f3efc82aaedc97be59f3f377c0d4087015590517ff652222313e28459528d920b65115c16c04f3efc82aaedc97be59f3f377c0d4186015592517ff652222313e28459528d920b65115c16c04f3efc82aaedc97be59f3f377c0d428501555090517ff652222313e28459528d920b65115c16c04f3efc82aaedc97be59f3f377c0d4390920180547fffffffffffffffffffffffffffffffffffffffffffffffffffffffffffff00001692909116919091179055565b60045473ffffffffffffffffffffffffffffffffffffffff16331461140e57604080517f08c379a000000000000000000000000000000000000000000000000000000000815260206004820152601860248201527f736574466565416464726573733a20464f5242494444454e0000000000000000604482015290519081900360640190fd5b600480547fffffffffffffffffffffffff00000000000000000000000000000000000000001673ffffffffffffffffffffffffffffffffffffffff92909216919091179055565b600181565b60025473ffffffffffffffffffffffffffffffffffffffff1633146114e057604080517f08c379a000000000000000000000000000000000000000000000000000000000815260206004820152600960248201527f6465763a207775743f0000000000000000000000000000000000000000000000604482015290519081900360640190fd5b600280547fffffffffffffffffffffffff00000000000000000000000000000000000000001673ffffffffffffffffffffffffffffffffffffffff92909216919091179055565b60005473ffffffffffffffffffffffffffffffffffffffff1690565b60006115546001610d918486611cbb565b90505b92915050565b60076020908152600092835260408084209091529082529020805460019091015482565b60035481565b60015473ffffffffffffffffffffffffffffffffffffffff1681565b60025473ffffffffffffffffffffffffffffffffffffffff1681565b6115c7611c02565b60005473ffffffffffffffffffffffffffffffffffffffff90811691161461165057604080517f08c379a000000000000000000000000000000000000000000000000000000000815260206004820181905260248201527f4f776e61626c653a2063616c6c6572206973206e6f7420746865206f776e6572604482015290519081900360640190fd5b6127108261ffff1611156116af576040517f08c379a00000000000000000000000000000000000000000000000000000000081526004018080602001828103825260258152602001806126e86025913960400191505060405180910390fd5b80156116bd576116bd610fb0565b6116fa836116f4600687815481106116d157fe5b906000526020600020906005020160010154600854611cbb90919063ffffffff16565b9061211b565b600881905550826006858154811061170e57fe5b906000526020600020906005020160010181905550816006858154811061173157fe5b906000526020600020906005020160040160006101000a81548161ffff021916908361ffff16021790555050505050565b60006006838154811061177157fe5b600091825260208083208684526007825260408085203386529092529220600590910290910191506117a284610c6b565b8054156117eb5760006117d7826001015461085864e8d4a5100061085287600301548760000154611c0690919063ffffffff16565b905080156117e9576117e93382611cfd565b505b82156118975781546118159073ffffffffffffffffffffffffffffffffffffffff1633308661218f565b600482015461ffff1615611888576004820154600090611842906127109061085290879061ffff16611c06565b600454845491925061186e9173ffffffffffffffffffffffffffffffffffffffff908116911683611f00565b8154611880908290610858908761211b565b825550611897565b8054611894908461211b565b81555b600382015481546118b29164e8d4a510009161085291611c06565b6001820155604080518481529051859133917f90890809c654f11d6e72a28fa60149770a0d11ec6c92319d6ceb2bb0a4ea1a159181900360200190a350505050565b6118fc611c02565b60005473ffffffffffffffffffffffffffffffffffffffff90811691161461198557604080517f08c379a000000000000000000000000000000000000000000000000000000000815260206004820181905260248201527f4f776e61626c653a2063616c6c6572206973206e6f7420746865206f776e6572604482015290519081900360640190fd5b73ffffffffffffffffffffffffffffffffffffffff81166119f1576040517f08c379a000000000000000000000000000000000000000000000000000000000815260040180806020018281038252602681526020018061266b6026913960400191505060405180910390fd5b6000805460405173ffffffffffffffffffffffffffffffffffffffff808516939216917f8be0079c531659141344cd1fd0a4f28419497f9722a3daafe3b4186f6b6457e091a3600080547fffffffffffffffffffffffff00000000000000000000000000000000000000001673ffffffffffffffffffffffffffffffffffffffff92909216919091179055565b60008060068481548110611a8e57fe5b6000918252602080832087845260078252604080852073ffffffffffffffffffffffffffffffffffffffff89811687529084528186206005959095029092016003810154815483517f70a0823100000000000000000000000000000000000000000000000000000000815230600482015293519298509596909590949316926370a082319260248082019391829003018186803b158015611b2e57600080fd5b505afa158015611b42573d6000803e3d6000fd5b505050506040513d6020811015611b5857600080fd5b5051600285015490915043118015611b6f57508015155b15611bcf576000611b84856002015443611543565b90506000611bab6008546108528860010154610d9160035487611c0690919063ffffffff16565b9050611bca611bc3846108528464e8d4a51000611c06565b859061211b565b935050505b611bf7836001015461085864e8d4a51000610852868860000154611c0690919063ffffffff16565b979650505050505050565b3390565b600082611c1557506000611557565b82820282848281611c2257fe5b0414611554576040517f08c379a00000000000000000000000000000000000000000000000000000000081526004018080602001828103825260218152602001806126916021913960400191505060405180910390fd5b600061155483836040518060400160405280601a81526020017f536166654d6174683a206469766973696f6e206279207a65726f00000000000081525061222a565b600061155483836040518060400160405280601e81526020017f536166654d6174683a207375627472616374696f6e206f766572666c6f7700008152506122e6565b600154604080517f70a08231000000000000000000000000000000000000000000000000000000008152306004820152905160009273ffffffffffffffffffffffffffffffffffffffff16916370a08231916024808301926020929190829003018186803b158015611d6e57600080fd5b505afa158015611d82573d6000803e3d6000fd5b505050506040513d6020811015611d9857600080fd5b5051905080821115611e5257600154604080517fa9059cbb00000000000000000000000000000000000000000000000000000000815273ffffffffffffffffffffffffffffffffffffffff8681166004830152602482018590529151919092169163a9059cbb9160448083019260209291908290030181600087803b158015611e2057600080fd5b505af1158015611e34573d6000803e3d6000fd5b505050506040513d6020811015611e4a57600080fd5b50611efb9050565b600154604080517fa9059cbb00000000000000000000000000000000000000000000000000000000815273ffffffffffffffffffffffffffffffffffffffff8681166004830152602482018690529151919092169163a9059cbb9160448083019260209291908290030181600087803b158015611ece57600080fd5b505af1158015611ee2573d6000803e3d6000fd5b505050506040513d6020811015611ef857600080fd5b50505b505050565b6040805173ffffffffffffffffffffffffffffffffffffffff8416602482015260448082018490528251808303909101815260649091019091526020810180517bffffffffffffffffffffffffffffffffffffffffffffffffffffffff167fa9059cbb00000000000000000000000000000000000000000000000000000000179052611efb90849061235a565b8015806120395750604080517fdd62ed3e00000000000000000000000000000000000000000000000000000000815230600482015273ffffffffffffffffffffffffffffffffffffffff848116602483015291519185169163dd62ed3e91604480820192602092909190829003018186803b15801561200b57600080fd5b505afa15801561201f573d6000803e3d6000fd5b505050506040513d602081101561203557600080fd5b5051155b61208e576040517f08c379a00000000000000000000000000000000000000000000000000000000081526004018080602001828103825260368152602001806126b26036913960400191505060405180910390fd5b6040805173ffffffffffffffffffffffffffffffffffffffff8416602482015260448082018490528251808303909101815260649091019091526020810180517bffffffffffffffffffffffffffffffffffffffffffffffffffffffff167f095ea7b300000000000000000000000000000000000000000000000000000000179052611efb90849061235a565b60008282018381101561155457604080517f08c379a000000000000000000000000000000000000000000000000000000000815260206004820152601b60248201527f536166654d6174683a206164646974696f6e206f766572666c6f770000000000604482015290519081900360640190fd5b6040805173ffffffffffffffffffffffffffffffffffffffff80861660248301528416604482015260648082018490528251808303909101815260849091019091526020810180517bffffffffffffffffffffffffffffffffffffffffffffffffffffffff167f23b872dd0000000000000000000000000000000000000000000000000000000017905261222490859061235a565b50505050565b600081836122d0576040517f08c379a00000000000000000000000000000000000000000000000000000000081526004018080602001828103825283818151815260200191508051906020019080838360005b8381101561229557818101518382015260200161227d565b50505050905090810190601f1680156122c25780820380516001836020036101000a031916815260200191505b509250505060405180910390fd5b5060008385816122dc57fe5b0495945050505050565b60008184841115612352576040517f08c379a000000000000000000000000000000000000000000000000000000000815260206004820181815283516024840152835190928392604490910191908501908083836000831561229557818101518382015260200161227d565b505050900390565b60606123bc826040518060400160405280602081526020017f5361666542455032303a206c6f772d6c6576656c2063616c6c206661696c65648152508573ffffffffffffffffffffffffffffffffffffffff166124329092919063ffffffff16565b805190915015611efb578080602001905160208110156123db57600080fd5b5051611efb576040517f08c379a000000000000000000000000000000000000000000000000000000000815260040180806020018281038252602a815260200180612641602a913960400191505060405180910390fd5b60606124418484600085612449565b949350505050565b606061245485612615565b6124bf57604080517f08c379a000000000000000000000000000000000000000000000000000000000815260206004820152601d60248201527f416464726573733a2063616c6c20746f206e6f6e2d636f6e7472616374000000604482015290519081900360640190fd5b600060608673ffffffffffffffffffffffffffffffffffffffff1685876040518082805190602001908083835b6020831061252957805182527fffffffffffffffffffffffffffffffffffffffffffffffffffffffffffffffe090920191602091820191016124ec565b6001836020036101000a03801982511681845116808217855250505050505090500191505060006040518083038185875af1925050503d806000811461258b576040519150601f19603f3d011682016040523d82523d6000602084013e612590565b606091505b509150915081156125a45791506124419050565b8051156125b45780518082602001fd5b6040517f08c379a000000000000000000000000000000000000000000000000000000000815260206004820181815286516024840152865187939192839260440191908501908083836000831561229557818101518382015260200161227d565b3b15159056fe6164643a20696e76616c6964206465706f7369742066656520626173697320706f696e74735361666542455032303a204245503230206f7065726174696f6e20646964206e6f7420737563636565644f776e61626c653a206e6577206f776e657220697320746865207a65726f2061646472657373536166654d6174683a206d756c7469706c69636174696f6e206f766572666c6f775361666542455032303a20617070726f76652066726f6d206e6f6e2d7a65726f20746f206e6f6e2d7a65726f20616c6c6f77616e63657365743a20696e76616c6964206465706f7369742066656520626173697320706f696e7473a2646970667358221220666fc5400b64a8f8afe399ef62bd75d0591032c6624d48281e26fe6f0d5c7f9564736f6c634300060c0033",
  "immutableReferences": {},
  "source": "// SPDX-License-Identifier: MIT\n\npragma solidity 0.6.12;\n\nimport \"@openzeppelin/contracts/math/SafeMath.sol\";\nimport \"./libs/IBEP20.sol\";\nimport \"./libs/SafeBEP20.sol\";\nimport \"@openzeppelin/contracts/access/Ownable.sol\";\n\nimport \"./HighToken.sol\";\n\ninterface IMigratorChef {\n    function migrate(IBEP20 token) external returns (IBEP20);\n}\n\n// MasterChef is the master of Egg. He can make Egg and he is a fair guy.\n//\n// Note that it's ownable and the owner wields tremendous power. The ownership\n// will be transferred to a governance smart contract once HIGH is sufficiently\n// distributed and the community can show to govern itself.\n//\n// Have fun reading it. Hopefully it's bug-free. God bless.\ncontract MasterChef is Ownable {\n    using SafeMath for uint256;\n    using SafeBEP20 for IBEP20;\n\n    // Info of each user.\n    struct UserInfo {\n        uint256 amount; // How many LP tokens the user has provided.\n        uint256 rewardDebt; // Reward debt. See explanation below.\n        //\n        // We do some fancy math here. Basically, any point in time, the amount of HIGHs\n        // entitled to a user but is pending to be distributed is:\n        //\n        //   pending reward = (user.amount * pool.accEggPerShare) - user.rewardDebt\n        //\n        // Whenever a user deposits or withdraws LP tokens to a pool. Here's what happens:\n        //   1. The pool's `accEggPerShare` (and `lastRewardBlock`) gets updated.\n        //   2. User receives the pending reward sent to his/her address.\n        //   3. User's `amount` gets updated.\n        //   4. User's `rewardDebt` gets updated.\n    }\n\n    // Info of each pool.\n    struct PoolInfo {\n        IBEP20 lpToken; // Address of LP token contract.\n        uint256 allocPoint; // How many allocation points assigned to this pool. HIGHs to distribute per block.\n        uint256 lastRewardBlock; // Last block number that HIGHs distribution occurs.\n        uint256 accEggPerShare; // Accumulated HIGHs per share, times 1e12. See below.\n        uint16 depositFeeBP; // Deposit fee in basis points\n    }\n\n    // The HIGH TOKEN!\n    HighToken public egg;\n    // Dev address.\n    address public devaddr;\n    // HIGH tokens created per block.\n    uint256 public eggPerBlock;\n    // Bonus muliplier for early egg makers.\n    uint256 public constant BONUS_MULTIPLIER = 1;\n    // Deposit Fee address\n    address public feeAddress;\n\n    IMigratorChef public migrator;\n\n    // Info of each pool.\n    PoolInfo[] public poolInfo;\n    // Info of each user that stakes LP tokens.\n    mapping(uint256 => mapping(address => UserInfo)) public userInfo;\n    // Total allocation points. Must be the sum of all allocation points in all pools.\n    uint256 public totalAllocPoint = 0;\n    // The block number when HIGH mining starts.\n    uint256 public startBlock;\n\n    event Deposit(address indexed user, uint256 indexed pid, uint256 amount);\n    event Withdraw(address indexed user, uint256 indexed pid, uint256 amount);\n    event EmergencyWithdraw(\n        address indexed user,\n        uint256 indexed pid,\n        uint256 amount\n    );\n\n    constructor(\n        HighToken _egg,\n        address _devaddr,\n        address _feeAddress,\n        uint256 _eggPerBlock,\n        uint256 _startBlock\n    ) public {\n        egg = _egg;\n        devaddr = _devaddr;\n        feeAddress = _feeAddress;\n        eggPerBlock = _eggPerBlock;\n        startBlock = _startBlock;\n    }\n\n    function poolLength() external view returns (uint256) {\n        return poolInfo.length;\n    }\n\n    // Add a new lp to the pool. Can only be called by the owner.\n    // XXX DO NOT add the same LP token more than once. Rewards will be messed up if you do.\n    function add(\n        uint256 _allocPoint,\n        IBEP20 _lpToken,\n        uint16 _depositFeeBP,\n        bool _withUpdate\n    ) public onlyOwner {\n        require(\n            _depositFeeBP <= 10000,\n            \"add: invalid deposit fee basis points\"\n        );\n        if (_withUpdate) {\n            massUpdatePools();\n        }\n        uint256 lastRewardBlock = block.number > startBlock\n            ? block.number\n            : startBlock;\n        totalAllocPoint = totalAllocPoint.add(_allocPoint);\n        poolInfo.push(\n            PoolInfo({\n                lpToken: _lpToken,\n                allocPoint: _allocPoint,\n                lastRewardBlock: lastRewardBlock,\n                accEggPerShare: 0,\n                depositFeeBP: _depositFeeBP\n            })\n        );\n    }\n\n    // Update the given pool's HIGH allocation point and deposit fee. Can only be called by the owner.\n    function set(\n        uint256 _pid,\n        uint256 _allocPoint,\n        uint16 _depositFeeBP,\n        bool _withUpdate\n    ) public onlyOwner {\n        require(\n            _depositFeeBP <= 10000,\n            \"set: invalid deposit fee basis points\"\n        );\n        if (_withUpdate) {\n            massUpdatePools();\n        }\n        totalAllocPoint = totalAllocPoint.sub(poolInfo[_pid].allocPoint).add(\n            _allocPoint\n        );\n        poolInfo[_pid].allocPoint = _allocPoint;\n        poolInfo[_pid].depositFeeBP = _depositFeeBP;\n    }\n\n    // Set the migrator contract. Can only be called by the owner.\n    function setMigrator(IMigratorChef _migrator) public onlyOwner {\n        migrator = _migrator;\n    }\n\n    // this migration is locked via a multisig wallet, can't be called\n    function migrate(uint256 _pid) public {\n        require(address(migrator) != address(0), \"migrate: no migrator\");\n        PoolInfo storage pool = poolInfo[_pid];\n        IBEP20 lpToken = pool.lpToken;\n        uint256 bal = lpToken.balanceOf(address(this));\n        lpToken.safeApprove(address(migrator), bal);\n        IBEP20 newLpToken = migrator.migrate(lpToken);\n        require(bal == newLpToken.balanceOf(address(this)), \"migrate: bad\");\n        pool.lpToken = newLpToken;\n    }\n\n\n    // Return reward multiplier over the given _from to _to block.\n    function getMultiplier(uint256 _from, uint256 _to)\n        public\n        view\n        returns (uint256)\n    {\n        return _to.sub(_from).mul(BONUS_MULTIPLIER);\n    }\n\n    // View function to see pending HIGHs on frontend.\n    function pendingEgg(uint256 _pid, address _user)\n        external\n        view\n        returns (uint256)\n    {\n        PoolInfo storage pool = poolInfo[_pid];\n        UserInfo storage user = userInfo[_pid][_user];\n        uint256 accEggPerShare = pool.accEggPerShare;\n        uint256 lpSupply = pool.lpToken.balanceOf(address(this));\n        if (block.number > pool.lastRewardBlock && lpSupply != 0) {\n            uint256 multiplier = getMultiplier(\n                pool.lastRewardBlock,\n                block.number\n            );\n            uint256 eggReward = multiplier\n                .mul(eggPerBlock)\n                .mul(pool.allocPoint)\n                .div(totalAllocPoint);\n            accEggPerShare = accEggPerShare.add(\n                eggReward.mul(1e12).div(lpSupply)\n            );\n        }\n        return user.amount.mul(accEggPerShare).div(1e12).sub(user.rewardDebt);\n    }\n\n    // Update reward variables for all pools. Be careful of gas spending!\n    function massUpdatePools() public {\n        uint256 length = poolInfo.length;\n        for (uint256 pid = 0; pid < length; ++pid) {\n            updatePool(pid);\n        }\n    }\n\n    // Update reward variables of the given pool to be up-to-date.\n    function updatePool(uint256 _pid) public {\n        PoolInfo storage pool = poolInfo[_pid];\n        if (block.number <= pool.lastRewardBlock) {\n            return;\n        }\n        uint256 lpSupply = pool.lpToken.balanceOf(address(this));\n        if (lpSupply == 0 || pool.allocPoint == 0) {\n            pool.lastRewardBlock = block.number;\n            return;\n        }\n        uint256 multiplier = getMultiplier(pool.lastRewardBlock, block.number);\n        uint256 eggReward = multiplier\n            .mul(eggPerBlock)\n            .mul(pool.allocPoint)\n            .div(totalAllocPoint);\n        egg.mint(devaddr, eggReward.div(10));\n        egg.mint(address(this), eggReward);\n        pool.accEggPerShare = pool.accEggPerShare.add(\n            eggReward.mul(1e12).div(lpSupply)\n        );\n        pool.lastRewardBlock = block.number;\n    }\n\n    // Deposit LP tokens to MasterChef for HIGH allocation.\n    function deposit(uint256 _pid, uint256 _amount) public {\n        PoolInfo storage pool = poolInfo[_pid];\n        UserInfo storage user = userInfo[_pid][msg.sender];\n        updatePool(_pid);\n        if (user.amount > 0) {\n            uint256 pending = user\n                .amount\n                .mul(pool.accEggPerShare)\n                .div(1e12)\n                .sub(user.rewardDebt);\n            if (pending > 0) {\n                safeEggTransfer(msg.sender, pending);\n            }\n        }\n        if (_amount > 0) {\n            pool.lpToken.safeTransferFrom(\n                address(msg.sender),\n                address(this),\n                _amount\n            );\n            if (pool.depositFeeBP > 0) {\n                uint256 depositFee = _amount.mul(pool.depositFeeBP).div(10000);\n                pool.lpToken.safeTransfer(feeAddress, depositFee);\n                user.amount = user.amount.add(_amount).sub(depositFee);\n            } else {\n                user.amount = user.amount.add(_amount);\n            }\n        }\n        user.rewardDebt = user.amount.mul(pool.accEggPerShare).div(1e12);\n        emit Deposit(msg.sender, _pid, _amount);\n    }\n\n    // Withdraw LP tokens from MasterChef.\n    function withdraw(uint256 _pid, uint256 _amount) public {\n        PoolInfo storage pool = poolInfo[_pid];\n        UserInfo storage user = userInfo[_pid][msg.sender];\n        require(user.amount >= _amount, \"withdraw: not good\");\n        updatePool(_pid);\n        uint256 pending = user.amount.mul(pool.accEggPerShare).div(1e12).sub(\n            user.rewardDebt\n        );\n        if (pending > 0) {\n            safeEggTransfer(msg.sender, pending);\n        }\n        if (_amount > 0) {\n            user.amount = user.amount.sub(_amount);\n            pool.lpToken.safeTransfer(address(msg.sender), _amount);\n        }\n        user.rewardDebt = user.amount.mul(pool.accEggPerShare).div(1e12);\n        emit Withdraw(msg.sender, _pid, _amount);\n    }\n\n    // Withdraw without caring about rewards. EMERGENCY ONLY.\n    function emergencyWithdraw(uint256 _pid) public {\n        PoolInfo storage pool = poolInfo[_pid];\n        UserInfo storage user = userInfo[_pid][msg.sender];\n        uint256 amount = user.amount;\n        user.amount = 0;\n        user.rewardDebt = 0;\n        pool.lpToken.safeTransfer(address(msg.sender), amount);\n        emit EmergencyWithdraw(msg.sender, _pid, amount);\n    }\n\n    // Safe egg transfer function, just in case if rounding error causes pool to not have enough HIGHs.\n    function safeEggTransfer(address _to, uint256 _amount) internal {\n        uint256 eggBal = egg.balanceOf(address(this));\n        if (_amount > eggBal) {\n            egg.transfer(_to, eggBal);\n        } else {\n            egg.transfer(_to, _amount);\n        }\n    }\n\n    // Update dev address by the previous dev.\n    function dev(address _devaddr) public {\n        require(msg.sender == devaddr, \"dev: wut?\");\n        devaddr = _devaddr;\n    }\n\n    function setFeeAddress(address _feeAddress) public {\n        require(msg.sender == feeAddress, \"setFeeAddress: FORBIDDEN\");\n        feeAddress = _feeAddress;\n    }\n\n    //Pancake has to add hidden dummy pools inorder to alter the emission, here we make it simple and transparent to all.\n    function updateEmissionRate(uint256 _eggPerBlock) public onlyOwner {\n        massUpdatePools();\n        eggPerBlock = _eggPerBlock;\n    }\n}\n",
  "sourcePath": "/Users/rostyslav/Desktop/projects/avax-yield-farm/goose-contracts/contracts/MasterChef.sol",
  "compiler": {
    "name": "solc",
    "version": "0.6.12+commit.27d51765.Emscripten.clang"
  },
  "schemaVersion": "3.3.1",
  "updatedAt": "2022-02-12T16:13:19.724Z",
  "devdoc": {
    "kind": "dev",
    "methods": {
      "owner()": {
        "details": "Returns the address of the current owner."
      },
      "renounceOwnership()": {
        "details": "Leaves the contract without owner. It will not be possible to call `onlyOwner` functions anymore. Can only be called by the current owner. NOTE: Renouncing ownership will leave the contract without an owner, thereby removing any functionality that is only available to the owner."
      },
      "transferOwnership(address)": {
        "details": "Transfers ownership of the contract to a new account (`newOwner`). Can only be called by the current owner."
      }
    },
    "version": 1
  },
  "userdoc": {
    "kind": "user",
    "methods": {},
    "version": 1
  }
}