{
  "contractName": "MockBEP20",
  "abi": [
    {
      "inputs": [
        {
          "internalType": "string",
          "name": "name",
          "type": "string"
        },
        {
          "internalType": "string",
          "name": "symbol",
          "type": "string"
        },
        {
          "internalType": "uint256",
          "name": "supply",
          "type": "uint256"
        }
      ],
      "stateMutability": "nonpayable",
      "type": "constructor"
    },
    {
      "anonymous": false,
      "inputs": [
        {
          "indexed": true,
          "internalType": "address",
          "name": "owner",
          "type": "address"
        },
        {
          "indexed": true,
          "internalType": "address",
          "name": "spender",
          "type": "address"
        },
        {
          "indexed": false,
          "internalType": "uint256",
          "name": "value",
          "type": "uint256"
        }
      ],
      "name": "Approval",
      "type": "event"
    },
    {
      "anonymous": false,
      "inputs": [
        {
          "indexed": true,
          "internalType": "address",
          "name": "previousOwner",
          "type": "address"
        },
        {
          "indexed": true,
          "internalType": "address",
          "name": "newOwner",
          "type": "address"
        }
      ],
      "name": "OwnershipTransferred",
      "type": "event"
    },
    {
      "anonymous": false,
      "inputs": [
        {
          "indexed": true,
          "internalType": "address",
          "name": "from",
          "type": "address"
        },
        {
          "indexed": true,
          "internalType": "address",
          "name": "to",
          "type": "address"
        },
        {
          "indexed": false,
          "internalType": "uint256",
          "name": "value",
          "type": "uint256"
        }
      ],
      "name": "Transfer",
      "type": "event"
    },
    {
      "inputs": [
        {
          "internalType": "address",
          "name": "owner",
          "type": "address"
        },
        {
          "internalType": "address",
          "name": "spender",
          "type": "address"
        }
      ],
      "name": "allowance",
      "outputs": [
        {
          "internalType": "uint256",
          "name": "",
          "type": "uint256"
        }
      ],
      "stateMutability": "view",
      "type": "function"
    },
    {
      "inputs": [
        {
          "internalType": "address",
          "name": "spender",
          "type": "address"
        },
        {
          "internalType": "uint256",
          "name": "amount",
          "type": "uint256"
        }
      ],
      "name": "approve",
      "outputs": [
        {
          "internalType": "bool",
          "name": "",
          "type": "bool"
        }
      ],
      "stateMutability": "nonpayable",
      "type": "function"
    },
    {
      "inputs": [
        {
          "internalType": "address",
          "name": "account",
          "type": "address"
        }
      ],
      "name": "balanceOf",
      "outputs": [
        {
          "internalType": "uint256",
          "name": "",
          "type": "uint256"
        }
      ],
      "stateMutability": "view",
      "type": "function"
    },
    {
      "inputs": [],
      "name": "decimals",
      "outputs": [
        {
          "internalType": "uint8",
          "name": "",
          "type": "uint8"
        }
      ],
      "stateMutability": "view",
      "type": "function"
    },
    {
      "inputs": [
        {
          "internalType": "address",
          "name": "spender",
          "type": "address"
        },
        {
          "internalType": "uint256",
          "name": "subtractedValue",
          "type": "uint256"
        }
      ],
      "name": "decreaseAllowance",
      "outputs": [
        {
          "internalType": "bool",
          "name": "",
          "type": "bool"
        }
      ],
      "stateMutability": "nonpayable",
      "type": "function"
    },
    {
      "inputs": [],
      "name": "getOwner",
      "outputs": [
        {
          "internalType": "address",
          "name": "",
          "type": "address"
        }
      ],
      "stateMutability": "view",
      "type": "function"
    },
    {
      "inputs": [
        {
          "internalType": "address",
          "name": "spender",
          "type": "address"
        },
        {
          "internalType": "uint256",
          "name": "addedValue",
          "type": "uint256"
        }
      ],
      "name": "increaseAllowance",
      "outputs": [
        {
          "internalType": "bool",
          "name": "",
          "type": "bool"
        }
      ],
      "stateMutability": "nonpayable",
      "type": "function"
    },
    {
      "inputs": [
        {
          "internalType": "uint256",
          "name": "amount",
          "type": "uint256"
        }
      ],
      "name": "mint",
      "outputs": [
        {
          "internalType": "bool",
          "name": "",
          "type": "bool"
        }
      ],
      "stateMutability": "nonpayable",
      "type": "function"
    },
    {
      "inputs": [],
      "name": "name",
      "outputs": [
        {
          "internalType": "string",
          "name": "",
          "type": "string"
        }
      ],
      "stateMutability": "view",
      "type": "function"
    },
    {
      "inputs": [],
      "name": "owner",
      "outputs": [
        {
          "internalType": "address",
          "name": "",
          "type": "address"
        }
      ],
      "stateMutability": "view",
      "type": "function"
    },
    {
      "inputs": [],
      "name": "renounceOwnership",
      "outputs": [],
      "stateMutability": "nonpayable",
      "type": "function"
    },
    {
      "inputs": [],
      "name": "symbol",
      "outputs": [
        {
          "internalType": "string",
          "name": "",
          "type": "string"
        }
      ],
      "stateMutability": "view",
      "type": "function"
    },
    {
      "inputs": [],
      "name": "totalSupply",
      "outputs": [
        {
          "internalType": "uint256",
          "name": "",
          "type": "uint256"
        }
      ],
      "stateMutability": "view",
      "type": "function"
    },
    {
      "inputs": [
        {
          "internalType": "address",
          "name": "recipient",
          "type": "address"
        },
        {
          "internalType": "uint256",
          "name": "amount",
          "type": "uint256"
        }
      ],
      "name": "transfer",
      "outputs": [
        {
          "internalType": "bool",
          "name": "",
          "type": "bool"
        }
      ],
      "stateMutability": "nonpayable",
      "type": "function"
    },
    {
      "inputs": [
        {
          "internalType": "address",
          "name": "sender",
          "type": "address"
        },
        {
          "internalType": "address",
          "name": "recipient",
          "type": "address"
        },
        {
          "internalType": "uint256",
          "name": "amount",
          "type": "uint256"
        }
      ],
      "name": "transferFrom",
      "outputs": [
        {
          "internalType": "bool",
          "name": "",
          "type": "bool"
        }
      ],
      "stateMutability": "nonpayable",
      "type": "function"
    },
    {
      "inputs": [
        {
          "internalType": "address",
          "name": "newOwner",
          "type": "address"
        }
      ],
      "name": "transferOwnership",
      "outputs": [],
      "stateMutability": "nonpayable",
      "type": "function"
    }
  ],
  "bytecode": "0x60806040523480156200001157600080fd5b50604051620015c8380380620015c8833981810160405260608110156200003757600080fd5b81019080805160405193929190846401000000008211156200005857600080fd5b9083019060208201858111156200006e57600080fd5b82516401000000008111828201881017156200008957600080fd5b82525081516020918201929091019080838360005b83811015620000b85781810151838201526020016200009e565b50505050905090810190601f168015620000e65780820380516001836020036101000a031916815260200191505b50604052602001805160405193929190846401000000008211156200010a57600080fd5b9083019060208201858111156200012057600080fd5b82516401000000008111828201881017156200013b57600080fd5b82525081516020918201929091019080838360005b838110156200016a57818101518382015260200162000150565b50505050905090810190601f168015620001985780820380516001836020036101000a031916815260200191505b50604052602001519150839050826000620001b26200024c565b600080546001600160a01b0319166001600160a01b0383169081178255604051929350917f8be0079c531659141344cd1fd0a4f28419497f9722a3daafe3b4186f6b6457e0908290a350815162000211906004906020850190620003b7565b50805162000227906005906020840190620003b7565b50506006805460ff191660121790555062000243338262000250565b50505062000453565b3390565b6001600160a01b038216620002ac576040805162461bcd60e51b815260206004820152601f60248201527f42455032303a206d696e7420746f20746865207a65726f206164647265737300604482015290519081900360640190fd5b620002c8816003546200035560201b62000aa31790919060201c565b6003556001600160a01b038216600090815260016020908152604090912054620002fd91839062000aa362000355821b17901c565b6001600160a01b03831660008181526001602090815260408083209490945583518581529351929391927fddf252ad1be2c89b69c2b068fc378daa952ba7f163c4a11628f55a4df523b3ef9281900390910190a35050565b600082820183811015620003b0576040805162461bcd60e51b815260206004820152601b60248201527f536166654d6174683a206164646974696f6e206f766572666c6f770000000000604482015290519081900360640190fd5b9392505050565b828054600181600116156101000203166002900490600052602060002090601f016020900481019282601f10620003fa57805160ff19168380011785556200042a565b828001600101855582156200042a579182015b828111156200042a5782518255916020019190600101906200040d565b50620004389291506200043c565b5090565b5b808211156200043857600081556001016200043d565b61116580620004636000396000f3fe608060405234801561001057600080fd5b50600436106101005760003560e01c8063893d20e811610097578063a457c2d711610066578063a457c2d71461031e578063a9059cbb14610357578063dd62ed3e14610390578063f2fde38b146103cb57610100565b8063893d20e8146102c05780638da5cb5b146102f157806395d89b41146102f9578063a0712d681461030157610100565b8063313ce567116100d3578063313ce5671461022c578063395093511461024a57806370a0823114610283578063715018a6146102b657610100565b806306fdde0314610105578063095ea7b31461018257806318160ddd146101cf57806323b872dd146101e9575b600080fd5b61010d6103fe565b6040805160208082528351818301528351919283929083019185019080838360005b8381101561014757818101518382015260200161012f565b50505050905090810190601f1680156101745780820380516001836020036101000a031916815260200191505b509250505060405180910390f35b6101bb6004803603604081101561019857600080fd5b5073ffffffffffffffffffffffffffffffffffffffff81351690602001356104b2565b604080519115158252519081900360200190f35b6101d76104cf565b60408051918252519081900360200190f35b6101bb600480360360608110156101ff57600080fd5b5073ffffffffffffffffffffffffffffffffffffffff8135811691602081013590911690604001356104d5565b610234610576565b6040805160ff9092168252519081900360200190f35b6101bb6004803603604081101561026057600080fd5b5073ffffffffffffffffffffffffffffffffffffffff813516906020013561057f565b6101d76004803603602081101561029957600080fd5b503573ffffffffffffffffffffffffffffffffffffffff166105da565b6102be610602565b005b6102c8610702565b6040805173ffffffffffffffffffffffffffffffffffffffff9092168252519081900360200190f35b6102c8610711565b61010d61072d565b6101bb6004803603602081101561031757600080fd5b50356107ac565b6101bb6004803603604081101561033457600080fd5b5073ffffffffffffffffffffffffffffffffffffffff8135169060200135610858565b6101bb6004803603604081101561036d57600080fd5b5073ffffffffffffffffffffffffffffffffffffffff81351690602001356108cd565b6101d7600480360360408110156103a657600080fd5b5073ffffffffffffffffffffffffffffffffffffffff813581169160200135166108e1565b6102be600480360360208110156103e157600080fd5b503573ffffffffffffffffffffffffffffffffffffffff16610919565b60048054604080516020601f60027fffffffffffffffffffffffffffffffffffffffffffffffffffffffffffffffff6101006001881615020190951694909404938401819004810282018101909252828152606093909290918301828280156104a85780601f1061047d576101008083540402835291602001916104a8565b820191906000526020600020905b81548152906001019060200180831161048b57829003601f168201915b5050505050905090565b60006104c66104bf610b1e565b8484610b22565b50600192915050565b60035490565b60006104e2848484610c69565b61056c846104ee610b1e565b610567856040518060600160405280602881526020016110786028913973ffffffffffffffffffffffffffffffffffffffff8a16600090815260026020526040812090610539610b1e565b73ffffffffffffffffffffffffffffffffffffffff1681526020810191909152604001600020549190610e30565b610b22565b5060019392505050565b60065460ff1690565b60006104c661058c610b1e565b84610567856002600061059d610b1e565b73ffffffffffffffffffffffffffffffffffffffff908116825260208083019390935260409182016000908120918c168152925290205490610aa3565b73ffffffffffffffffffffffffffffffffffffffff1660009081526001602052604090205490565b61060a610b1e565b60005473ffffffffffffffffffffffffffffffffffffffff90811691161461069357604080517f08c379a000000000000000000000000000000000000000000000000000000000815260206004820181905260248201527f4f776e61626c653a2063616c6c6572206973206e6f7420746865206f776e6572604482015290519081900360640190fd5b6000805460405173ffffffffffffffffffffffffffffffffffffffff909116907f8be0079c531659141344cd1fd0a4f28419497f9722a3daafe3b4186f6b6457e0908390a3600080547fffffffffffffffffffffffff0000000000000000000000000000000000000000169055565b600061070c610711565b905090565b60005473ffffffffffffffffffffffffffffffffffffffff1690565b60058054604080516020601f60027fffffffffffffffffffffffffffffffffffffffffffffffffffffffffffffffff6101006001881615020190951694909404938401819004810282018101909252828152606093909290918301828280156104a85780601f1061047d576101008083540402835291602001916104a8565b60006107b6610b1e565b60005473ffffffffffffffffffffffffffffffffffffffff90811691161461083f57604080517f08c379a000000000000000000000000000000000000000000000000000000000815260206004820181905260248201527f4f776e61626c653a2063616c6c6572206973206e6f7420746865206f776e6572604482015290519081900360640190fd5b61085061084a610b1e565b83610ee1565b506001919050565b60006104c6610865610b1e565b84610567856040518060600160405280602581526020016110e9602591396002600061088f610b1e565b73ffffffffffffffffffffffffffffffffffffffff908116825260208083019390935260409182016000908120918d16815292529020549190610e30565b60006104c66108da610b1e565b8484610c69565b73ffffffffffffffffffffffffffffffffffffffff918216600090815260026020908152604080832093909416825291909152205490565b610921610b1e565b60005473ffffffffffffffffffffffffffffffffffffffff9081169116146109aa57604080517f08c379a000000000000000000000000000000000000000000000000000000000815260206004820181905260248201527f4f776e61626c653a2063616c6c6572206973206e6f7420746865206f776e6572604482015290519081900360640190fd5b73ffffffffffffffffffffffffffffffffffffffff8116610a16576040517f08c379a00000000000000000000000000000000000000000000000000000000081526004018080602001828103825260268152602001806110526026913960400191505060405180910390fd5b6000805460405173ffffffffffffffffffffffffffffffffffffffff808516939216917f8be0079c531659141344cd1fd0a4f28419497f9722a3daafe3b4186f6b6457e091a3600080547fffffffffffffffffffffffff00000000000000000000000000000000000000001673ffffffffffffffffffffffffffffffffffffffff92909216919091179055565b600082820183811015610b1757604080517f08c379a000000000000000000000000000000000000000000000000000000000815260206004820152601b60248201527f536166654d6174683a206164646974696f6e206f766572666c6f770000000000604482015290519081900360640190fd5b9392505050565b3390565b73ffffffffffffffffffffffffffffffffffffffff8316610b8e576040517f08c379a000000000000000000000000000000000000000000000000000000000815260040180806020018281038252602481526020018061102e6024913960400191505060405180910390fd5b73ffffffffffffffffffffffffffffffffffffffff8216610bfa576040517f08c379a000000000000000000000000000000000000000000000000000000000815260040180806020018281038252602281526020018061110e6022913960400191505060405180910390fd5b73ffffffffffffffffffffffffffffffffffffffff808416600081815260026020908152604080832094871680845294825291829020859055815185815291517f8c5be1e5ebec7d5bd14f71427d1e84f3dd0314c0f7b2291e5b200ac8c7c3b9259281900390910190a3505050565b73ffffffffffffffffffffffffffffffffffffffff8316610cd5576040517f08c379a00000000000000000000000000000000000000000000000000000000081526004018080602001828103825260258152602001806110096025913960400191505060405180910390fd5b73ffffffffffffffffffffffffffffffffffffffff8216610d41576040517f08c379a00000000000000000000000000000000000000000000000000000000081526004018080602001828103825260238152602001806110c66023913960400191505060405180910390fd5b610d8b816040518060600160405280602681526020016110a06026913973ffffffffffffffffffffffffffffffffffffffff86166000908152600160205260409020549190610e30565b73ffffffffffffffffffffffffffffffffffffffff8085166000908152600160205260408082209390935590841681522054610dc79082610aa3565b73ffffffffffffffffffffffffffffffffffffffff80841660008181526001602090815260409182902094909455805185815290519193928716927fddf252ad1be2c89b69c2b068fc378daa952ba7f163c4a11628f55a4df523b3ef92918290030190a3505050565b60008184841115610ed9576040517f08c379a00000000000000000000000000000000000000000000000000000000081526004018080602001828103825283818151815260200191508051906020019080838360005b83811015610e9e578181015183820152602001610e86565b50505050905090810190601f168015610ecb5780820380516001836020036101000a031916815260200191505b509250505060405180910390fd5b505050900390565b73ffffffffffffffffffffffffffffffffffffffff8216610f6357604080517f08c379a000000000000000000000000000000000000000000000000000000000815260206004820152601f60248201527f42455032303a206d696e7420746f20746865207a65726f206164647265737300604482015290519081900360640190fd5b600354610f709082610aa3565b60035573ffffffffffffffffffffffffffffffffffffffff8216600090815260016020526040902054610fa39082610aa3565b73ffffffffffffffffffffffffffffffffffffffff831660008181526001602090815260408083209490945583518581529351929391927fddf252ad1be2c89b69c2b068fc378daa952ba7f163c4a11628f55a4df523b3ef9281900390910190a3505056fe42455032303a207472616e736665722066726f6d20746865207a65726f206164647265737342455032303a20617070726f76652066726f6d20746865207a65726f20616464726573734f776e61626c653a206e6577206f776e657220697320746865207a65726f206164647265737342455032303a207472616e7366657220616d6f756e74206578636565647320616c6c6f77616e636542455032303a207472616e7366657220616d6f756e7420657863656564732062616c616e636542455032303a207472616e7366657220746f20746865207a65726f206164647265737342455032303a2064656372656173656420616c6c6f77616e63652062656c6f77207a65726f42455032303a20617070726f766520746f20746865207a65726f2061646472657373a26469706673582212208b682ca0a26dc811961105db240985e44ae144ad7731ebab22e633bdfc75ec3164736f6c634300060c0033",
  "immutableReferences": {},
  "source": "pragma solidity 0.6.12;\n\nimport \"./BEP20.sol\";\n\ncontract MockBEP20 is BEP20 {\n    constructor(\n        string memory name,\n        string memory symbol,\n        uint256 supply\n    ) public BEP20(name, symbol) {\n        _mint(msg.sender, supply);\n\n    }\n}",
  "sourcePath": "/Users/rostyslav/Desktop/projects/avax-yield-farm/goose-contracts/contracts/libs/MockBEP20.sol",
  "compiler": {
    "name": "solc",
    "version": "0.6.12+commit.27d51765.Emscripten.clang"
  },
  "schemaVersion": "3.3.1",
  "updatedAt": "2022-02-12T16:13:19.753Z",
  "devdoc": {
    "kind": "dev",
    "methods": {
      "allowance(address,address)": {
        "details": "See {BEP20-allowance}."
      },
      "approve(address,uint256)": {
        "details": "See {BEP20-approve}. Requirements: - `spender` cannot be the zero address."
      },
      "balanceOf(address)": {
        "details": "See {BEP20-balanceOf}."
      },
      "decimals()": {
        "details": "Returns the number of decimals used to get its user representation."
      },
      "decreaseAllowance(address,uint256)": {
        "details": "Atomically decreases the allowance granted to `spender` by the caller. This is an alternative to {approve} that can be used as a mitigation for problems described in {BEP20-approve}. Emits an {Approval} event indicating the updated allowance. Requirements: - `spender` cannot be the zero address. - `spender` must have allowance for the caller of at least `subtractedValue`."
      },
      "getOwner()": {
        "details": "Returns the bep token owner."
      },
      "increaseAllowance(address,uint256)": {
        "details": "Atomically increases the allowance granted to `spender` by the caller. This is an alternative to {approve} that can be used as a mitigation for problems described in {BEP20-approve}. Emits an {Approval} event indicating the updated allowance. Requirements: - `spender` cannot be the zero address."
      },
      "mint(uint256)": {
        "details": "Creates `amount` tokens and assigns them to `msg.sender`, increasing the total supply. Requirements - `msg.sender` must be the token owner"
      },
      "name()": {
        "details": "Returns the name of the token."
      },
      "owner()": {
        "details": "Returns the address of the current owner."
      },
      "renounceOwnership()": {
        "details": "Leaves the contract without owner. It will not be possible to call `onlyOwner` functions anymore. Can only be called by the current owner. NOTE: Renouncing ownership will leave the contract without an owner, thereby removing any functionality that is only available to the owner."
      },
      "symbol()": {
        "details": "Returns the symbol of the token, usually a shorter version of the name."
      },
      "totalSupply()": {
        "details": "See {BEP20-totalSupply}."
      },
      "transfer(address,uint256)": {
        "details": "See {BEP20-transfer}. Requirements: - `recipient` cannot be the zero address. - the caller must have a balance of at least `amount`."
      },
      "transferFrom(address,address,uint256)": {
        "details": "See {BEP20-transferFrom}. Emits an {Approval} event indicating the updated allowance. This is not required by the EIP. See the note at the beginning of {BEP20}; Requirements: - `sender` and `recipient` cannot be the zero address. - `sender` must have a balance of at least `amount`. - the caller must have allowance for `sender`'s tokens of at least `amount`."
      },
      "transferOwnership(address)": {
        "details": "Transfers ownership of the contract to a new account (`newOwner`). Can only be called by the current owner."
      }
    },
    "version": 1
  },
  "userdoc": {
    "kind": "user",
    "methods": {},
    "version": 1
  }
}